{"contracts/CometStorage.sol":{"CometStorage":{"abi":[{"inputs":[{"internalType":"address","name":"","type":"address"},{"internalType":"address","name":"","type":"address"}],"name":"isAllowed","outputs":[{"internalType":"bool","name":"","type":"bool"}],"stateMutability":"view","type":"function"},{"inputs":[{"internalType":"address","name":"","type":"address"}],"name":"liquidatorPoints","outputs":[{"internalType":"uint32","name":"numAbsorbs","type":"uint32"},{"internalType":"uint64","name":"numAbsorbed","type":"uint64"},{"internalType":"uint128","name":"approxSpend","type":"uint128"},{"internalType":"uint32","name":"_reserved","type":"uint32"}],"stateMutability":"view","type":"function"},{"inputs":[{"internalType":"address","name":"","type":"address"}],"name":"totalsCollateral","outputs":[{"internalType":"uint128","name":"totalSupplyAsset","type":"uint128"},{"internalType":"uint128","name":"_reserved","type":"uint128"}],"stateMutability":"view","type":"function"},{"inputs":[{"internalType":"address","name":"","type":"address"}],"name":"userBasic","outputs":[{"internalType":"int104","name":"principal","type":"int104"},{"internalType":"uint64","name":"baseTrackingIndex","type":"uint64"},{"internalType":"uint64","name":"baseTrackingAccrued","type":"uint64"},{"internalType":"uint16","name":"assetsIn","type":"uint16"},{"internalType":"uint8","name":"_reserved","type":"uint8"}],"stateMutability":"view","type":"function"},{"inputs":[{"internalType":"address","name":"","type":"address"},{"internalType":"address","name":"","type":"address"}],"name":"userCollateral","outputs":[{"internalType":"uint128","name":"balance","type":"uint128"},{"internalType":"uint128","name":"_reserved","type":"uint128"}],"stateMutability":"view","type":"function"},{"inputs":[{"internalType":"address","name":"","type":"address"}],"name":"userNonce","outputs":[{"internalType":"uint256","name":"","type":"uint256"}],"stateMutability":"view","type":"function"}],"evm":{"bytecode":{"linkReferences":{},"object":"608060405234801561001057600080fd5b50610695806100206000396000f3fe608060405234801561001057600080fd5b50600436106100625760003560e01c80632b92a07d146100675780632e04b8e71461009857806359e017bd146100c8578063a1654379146100f9578063c5fa15cf14610129578063dc4abafd1461015c575b600080fd5b610081600480360381019061007c9190610405565b610190565b60405161008f929190610470565b60405180910390f35b6100b260048036038101906100ad9190610499565b6101f9565b6040516100bf91906104df565b60405180910390f35b6100e260048036038101906100dd9190610499565b610211565b6040516100f0929190610470565b60405180910390f35b610113600480360381019061010e9190610405565b61026d565b6040516101209190610515565b60405180910390f35b610143600480360381019061013e9190610499565b61029c565b6040516101539493929190610572565b60405180910390f35b61017660048036038101906101719190610499565b61031c565b60405161018795949392919061060c565b60405180910390f35b6006602052816000526040600020602052806000526040600020600091509150508060000160009054906101000a90046fffffffffffffffffffffffffffffffff16908060000160109054906101000a90046fffffffffffffffffffffffffffffffff16905082565b60046020528060005260406000206000915090505481565b60026020528060005260406000206000915090508060000160009054906101000a90046fffffffffffffffffffffffffffffffff16908060000160109054906101000a90046fffffffffffffffffffffffffffffffff16905082565b60036020528160005260406000206020528060005260406000206000915091509054906101000a900460ff1681565b60076020528060005260406000206000915090508060000160009054906101000a900463ffffffff16908060000160049054906101000a900467ffffffffffffffff169080600001600c9054906101000a90046fffffffffffffffffffffffffffffffff169080600001601c9054906101000a900463ffffffff16905084565b60056020528060005260406000206000915090508060000160009054906101000a9004600c0b9080600001600d9054906101000a900467ffffffffffffffff16908060000160159054906101000a900467ffffffffffffffff169080600001601d9054906101000a900461ffff169080600001601f9054906101000a900460ff16905085565b600080fd5b600073ffffffffffffffffffffffffffffffffffffffff82169050919050565b60006103d2826103a7565b9050919050565b6103e2816103c7565b81146103ed57600080fd5b50565b6000813590506103ff816103d9565b92915050565b6000806040838503121561041c5761041b6103a2565b5b600061042a858286016103f0565b925050602061043b858286016103f0565b9150509250929050565b60006fffffffffffffffffffffffffffffffff82169050919050565b61046a81610445565b82525050565b60006040820190506104856000830185610461565b6104926020830184610461565b9392505050565b6000602082840312156104af576104ae6103a2565b5b60006104bd848285016103f0565b91505092915050565b6000819050919050565b6104d9816104c6565b82525050565b60006020820190506104f460008301846104d0565b92915050565b60008115159050919050565b61050f816104fa565b82525050565b600060208201905061052a6000830184610506565b92915050565b600063ffffffff82169050919050565b61054981610530565b82525050565b600067ffffffffffffffff82169050919050565b61056c8161054f565b82525050565b60006080820190506105876000830187610540565b6105946020830186610563565b6105a16040830185610461565b6105ae6060830184610540565b95945050505050565b600081600c0b9050919050565b6105cd816105b7565b82525050565b600061ffff82169050919050565b6105ea816105d3565b82525050565b600060ff82169050919050565b610606816105f0565b82525050565b600060a08201905061062160008301886105c4565b61062e6020830187610563565b61063b6040830186610563565b61064860608301856105e1565b61065560808301846105fd565b969550505050505056fea2646970667358221220ca241038c69374f3c6c44fbab39014190e624a82ccb11f3065954af0ba7fe18264736f6c634300080f0033","opcodes":"PUSH1 0x80 PUSH1 0x40 MSTORE CALLVALUE DUP1 ISZERO PUSH2 0x10 JUMPI PUSH1 0x0 DUP1 REVERT JUMPDEST POP PUSH2 0x695 DUP1 PUSH2 0x20 PUSH1 0x0 CODECOPY PUSH1 0x0 RETURN INVALID PUSH1 0x80 PUSH1 0x40 MSTORE CALLVALUE DUP1 ISZERO PUSH2 0x10 JUMPI PUSH1 0x0 DUP1 REVERT JUMPDEST POP PUSH1 0x4 CALLDATASIZE LT PUSH2 0x62 JUMPI PUSH1 0x0 CALLDATALOAD PUSH1 0xE0 SHR DUP1 PUSH4 0x2B92A07D EQ PUSH2 0x67 JUMPI DUP1 PUSH4 0x2E04B8E7 EQ PUSH2 0x98 JUMPI DUP1 PUSH4 0x59E017BD EQ PUSH2 0xC8 JUMPI DUP1 PUSH4 0xA1654379 EQ PUSH2 0xF9 JUMPI DUP1 PUSH4 0xC5FA15CF EQ PUSH2 0x129 JUMPI DUP1 PUSH4 0xDC4ABAFD EQ PUSH2 0x15C JUMPI JUMPDEST PUSH1 0x0 DUP1 REVERT JUMPDEST PUSH2 0x81 PUSH1 0x4 DUP1 CALLDATASIZE SUB DUP2 ADD SWAP1 PUSH2 0x7C SWAP2 SWAP1 PUSH2 0x405 JUMP JUMPDEST PUSH2 0x190 JUMP JUMPDEST PUSH1 0x40 MLOAD PUSH2 0x8F SWAP3 SWAP2 SWAP1 PUSH2 0x470 JUMP JUMPDEST PUSH1 0x40 MLOAD DUP1 SWAP2 SUB SWAP1 RETURN JUMPDEST PUSH2 0xB2 PUSH1 0x4 DUP1 CALLDATASIZE SUB DUP2 ADD SWAP1 PUSH2 0xAD SWAP2 SWAP1 PUSH2 0x499 JUMP JUMPDEST PUSH2 0x1F9 JUMP JUMPDEST PUSH1 0x40 MLOAD PUSH2 0xBF SWAP2 SWAP1 PUSH2 0x4DF JUMP JUMPDEST PUSH1 0x40 MLOAD DUP1 SWAP2 SUB SWAP1 RETURN JUMPDEST PUSH2 0xE2 PUSH1 0x4 DUP1 CALLDATASIZE SUB DUP2 ADD SWAP1 PUSH2 0xDD SWAP2 SWAP1 PUSH2 0x499 JUMP JUMPDEST PUSH2 0x211 JUMP JUMPDEST PUSH1 0x40 MLOAD PUSH2 0xF0 SWAP3 SWAP2 SWAP1 PUSH2 0x470 JUMP JUMPDEST PUSH1 0x40 MLOAD DUP1 SWAP2 SUB SWAP1 RETURN JUMPDEST PUSH2 0x113 PUSH1 0x4 DUP1 CALLDATASIZE SUB DUP2 ADD SWAP1 PUSH2 0x10E SWAP2 SWAP1 PUSH2 0x405 JUMP JUMPDEST PUSH2 0x26D JUMP JUMPDEST PUSH1 0x40 MLOAD PUSH2 0x120 SWAP2 SWAP1 PUSH2 0x515 JUMP JUMPDEST PUSH1 0x40 MLOAD DUP1 SWAP2 SUB SWAP1 RETURN JUMPDEST PUSH2 0x143 PUSH1 0x4 DUP1 CALLDATASIZE SUB DUP2 ADD SWAP1 PUSH2 0x13E SWAP2 SWAP1 PUSH2 0x499 JUMP JUMPDEST PUSH2 0x29C JUMP JUMPDEST PUSH1 0x40 MLOAD PUSH2 0x153 SWAP5 SWAP4 SWAP3 SWAP2 SWAP1 PUSH2 0x572 JUMP JUMPDEST PUSH1 0x40 MLOAD DUP1 SWAP2 SUB SWAP1 RETURN JUMPDEST PUSH2 0x176 PUSH1 0x4 DUP1 CALLDATASIZE SUB DUP2 ADD SWAP1 PUSH2 0x171 SWAP2 SWAP1 PUSH2 0x499 JUMP JUMPDEST PUSH2 0x31C JUMP JUMPDEST PUSH1 0x40 MLOAD PUSH2 0x187 SWAP6 SWAP5 SWAP4 SWAP3 SWAP2 SWAP1 PUSH2 0x60C JUMP JUMPDEST PUSH1 0x40 MLOAD DUP1 SWAP2 SUB SWAP1 RETURN JUMPDEST PUSH1 0x6 PUSH1 0x20 MSTORE DUP2 PUSH1 0x0 MSTORE PUSH1 0x40 PUSH1 0x0 KECCAK256 PUSH1 0x20 MSTORE DUP1 PUSH1 0x0 MSTORE PUSH1 0x40 PUSH1 0x0 KECCAK256 PUSH1 0x0 SWAP2 POP SWAP2 POP POP DUP1 PUSH1 0x0 ADD PUSH1 0x0 SWAP1 SLOAD SWAP1 PUSH2 0x100 EXP SWAP1 DIV PUSH16 0xFFFFFFFFFFFFFFFFFFFFFFFFFFFFFFFF AND SWAP1 DUP1 PUSH1 0x0 ADD PUSH1 0x10 SWAP1 SLOAD SWAP1 PUSH2 0x100 EXP SWAP1 DIV PUSH16 0xFFFFFFFFFFFFFFFFFFFFFFFFFFFFFFFF AND SWAP1 POP DUP3 JUMP JUMPDEST PUSH1 0x4 PUSH1 0x20 MSTORE DUP1 PUSH1 0x0 MSTORE PUSH1 0x40 PUSH1 0x0 KECCAK256 PUSH1 0x0 SWAP2 POP SWAP1 POP SLOAD DUP2 JUMP JUMPDEST PUSH1 0x2 PUSH1 0x20 MSTORE DUP1 PUSH1 0x0 MSTORE PUSH1 0x40 PUSH1 0x0 KECCAK256 PUSH1 0x0 SWAP2 POP SWAP1 POP DUP1 PUSH1 0x0 ADD PUSH1 0x0 SWAP1 SLOAD SWAP1 PUSH2 0x100 EXP SWAP1 DIV PUSH16 0xFFFFFFFFFFFFFFFFFFFFFFFFFFFFFFFF AND SWAP1 DUP1 PUSH1 0x0 ADD PUSH1 0x10 SWAP1 SLOAD SWAP1 PUSH2 0x100 EXP SWAP1 DIV PUSH16 0xFFFFFFFFFFFFFFFFFFFFFFFFFFFFFFFF AND SWAP1 POP DUP3 JUMP JUMPDEST PUSH1 0x3 PUSH1 0x20 MSTORE DUP2 PUSH1 0x0 MSTORE PUSH1 0x40 PUSH1 0x0 KECCAK256 PUSH1 0x20 MSTORE DUP1 PUSH1 0x0 MSTORE PUSH1 0x40 PUSH1 0x0 KECCAK256 PUSH1 0x0 SWAP2 POP SWAP2 POP SWAP1 SLOAD SWAP1 PUSH2 0x100 EXP SWAP1 DIV PUSH1 0xFF AND DUP2 JUMP JUMPDEST PUSH1 0x7 PUSH1 0x20 MSTORE DUP1 PUSH1 0x0 MSTORE PUSH1 0x40 PUSH1 0x0 KECCAK256 PUSH1 0x0 SWAP2 POP SWAP1 POP DUP1 PUSH1 0x0 ADD PUSH1 0x0 SWAP1 SLOAD SWAP1 PUSH2 0x100 EXP SWAP1 DIV PUSH4 0xFFFFFFFF AND SWAP1 DUP1 PUSH1 0x0 ADD PUSH1 0x4 SWAP1 SLOAD SWAP1 PUSH2 0x100 EXP SWAP1 DIV PUSH8 0xFFFFFFFFFFFFFFFF AND SWAP1 DUP1 PUSH1 0x0 ADD PUSH1 0xC SWAP1 SLOAD SWAP1 PUSH2 0x100 EXP SWAP1 DIV PUSH16 0xFFFFFFFFFFFFFFFFFFFFFFFFFFFFFFFF AND SWAP1 DUP1 PUSH1 0x0 ADD PUSH1 0x1C SWAP1 SLOAD SWAP1 PUSH2 0x100 EXP SWAP1 DIV PUSH4 0xFFFFFFFF AND SWAP1 POP DUP5 JUMP JUMPDEST PUSH1 0x5 PUSH1 0x20 MSTORE DUP1 PUSH1 0x0 MSTORE PUSH1 0x40 PUSH1 0x0 KECCAK256 PUSH1 0x0 SWAP2 POP SWAP1 POP DUP1 PUSH1 0x0 ADD PUSH1 0x0 SWAP1 SLOAD SWAP1 PUSH2 0x100 EXP SWAP1 DIV PUSH1 0xC SIGNEXTEND SWAP1 DUP1 PUSH1 0x0 ADD PUSH1 0xD SWAP1 SLOAD SWAP1 PUSH2 0x100 EXP SWAP1 DIV PUSH8 0xFFFFFFFFFFFFFFFF AND SWAP1 DUP1 PUSH1 0x0 ADD PUSH1 0x15 SWAP1 SLOAD SWAP1 PUSH2 0x100 EXP SWAP1 DIV PUSH8 0xFFFFFFFFFFFFFFFF AND SWAP1 DUP1 PUSH1 0x0 ADD PUSH1 0x1D SWAP1 SLOAD SWAP1 PUSH2 0x100 EXP SWAP1 DIV PUSH2 0xFFFF AND SWAP1 DUP1 PUSH1 0x0 ADD PUSH1 0x1F SWAP1 SLOAD SWAP1 PUSH2 0x100 EXP SWAP1 DIV PUSH1 0xFF AND SWAP1 POP DUP6 JUMP JUMPDEST PUSH1 0x0 DUP1 REVERT JUMPDEST PUSH1 0x0 PUSH20 0xFFFFFFFFFFFFFFFFFFFFFFFFFFFFFFFFFFFFFFFF DUP3 AND SWAP1 POP SWAP2 SWAP1 POP JUMP JUMPDEST PUSH1 0x0 PUSH2 0x3D2 DUP3 PUSH2 0x3A7 JUMP JUMPDEST SWAP1 POP SWAP2 SWAP1 POP JUMP JUMPDEST PUSH2 0x3E2 DUP2 PUSH2 0x3C7 JUMP JUMPDEST DUP2 EQ PUSH2 0x3ED JUMPI PUSH1 0x0 DUP1 REVERT JUMPDEST POP JUMP JUMPDEST PUSH1 0x0 DUP2 CALLDATALOAD SWAP1 POP PUSH2 0x3FF DUP2 PUSH2 0x3D9 JUMP JUMPDEST SWAP3 SWAP2 POP POP JUMP JUMPDEST PUSH1 0x0 DUP1 PUSH1 0x40 DUP4 DUP6 SUB SLT ISZERO PUSH2 0x41C JUMPI PUSH2 0x41B PUSH2 0x3A2 JUMP JUMPDEST JUMPDEST PUSH1 0x0 PUSH2 0x42A DUP6 DUP3 DUP7 ADD PUSH2 0x3F0 JUMP JUMPDEST SWAP3 POP POP PUSH1 0x20 PUSH2 0x43B DUP6 DUP3 DUP7 ADD PUSH2 0x3F0 JUMP JUMPDEST SWAP2 POP POP SWAP3 POP SWAP3 SWAP1 POP JUMP JUMPDEST PUSH1 0x0 PUSH16 0xFFFFFFFFFFFFFFFFFFFFFFFFFFFFFFFF DUP3 AND SWAP1 POP SWAP2 SWAP1 POP JUMP JUMPDEST PUSH2 0x46A DUP2 PUSH2 0x445 JUMP JUMPDEST DUP3 MSTORE POP POP JUMP JUMPDEST PUSH1 0x0 PUSH1 0x40 DUP3 ADD SWAP1 POP PUSH2 0x485 PUSH1 0x0 DUP4 ADD DUP6 PUSH2 0x461 JUMP JUMPDEST PUSH2 0x492 PUSH1 0x20 DUP4 ADD DUP5 PUSH2 0x461 JUMP JUMPDEST SWAP4 SWAP3 POP POP POP JUMP JUMPDEST PUSH1 0x0 PUSH1 0x20 DUP3 DUP5 SUB SLT ISZERO PUSH2 0x4AF JUMPI PUSH2 0x4AE PUSH2 0x3A2 JUMP JUMPDEST JUMPDEST PUSH1 0x0 PUSH2 0x4BD DUP5 DUP3 DUP6 ADD PUSH2 0x3F0 JUMP JUMPDEST SWAP2 POP POP SWAP3 SWAP2 POP POP JUMP JUMPDEST PUSH1 0x0 DUP2 SWAP1 POP SWAP2 SWAP1 POP JUMP JUMPDEST PUSH2 0x4D9 DUP2 PUSH2 0x4C6 JUMP JUMPDEST DUP3 MSTORE POP POP JUMP JUMPDEST PUSH1 0x0 PUSH1 0x20 DUP3 ADD SWAP1 POP PUSH2 0x4F4 PUSH1 0x0 DUP4 ADD DUP5 PUSH2 0x4D0 JUMP JUMPDEST SWAP3 SWAP2 POP POP JUMP JUMPDEST PUSH1 0x0 DUP2 ISZERO ISZERO SWAP1 POP SWAP2 SWAP1 POP JUMP JUMPDEST PUSH2 0x50F DUP2 PUSH2 0x4FA JUMP JUMPDEST DUP3 MSTORE POP POP JUMP JUMPDEST PUSH1 0x0 PUSH1 0x20 DUP3 ADD SWAP1 POP PUSH2 0x52A PUSH1 0x0 DUP4 ADD DUP5 PUSH2 0x506 JUMP JUMPDEST SWAP3 SWAP2 POP POP JUMP JUMPDEST PUSH1 0x0 PUSH4 0xFFFFFFFF DUP3 AND SWAP1 POP SWAP2 SWAP1 POP JUMP JUMPDEST PUSH2 0x549 DUP2 PUSH2 0x530 JUMP JUMPDEST DUP3 MSTORE POP POP JUMP JUMPDEST PUSH1 0x0 PUSH8 0xFFFFFFFFFFFFFFFF DUP3 AND SWAP1 POP SWAP2 SWAP1 POP JUMP JUMPDEST PUSH2 0x56C DUP2 PUSH2 0x54F JUMP JUMPDEST DUP3 MSTORE POP POP JUMP JUMPDEST PUSH1 0x0 PUSH1 0x80 DUP3 ADD SWAP1 POP PUSH2 0x587 PUSH1 0x0 DUP4 ADD DUP8 PUSH2 0x540 JUMP JUMPDEST PUSH2 0x594 PUSH1 0x20 DUP4 ADD DUP7 PUSH2 0x563 JUMP JUMPDEST PUSH2 0x5A1 PUSH1 0x40 DUP4 ADD DUP6 PUSH2 0x461 JUMP JUMPDEST PUSH2 0x5AE PUSH1 0x60 DUP4 ADD DUP5 PUSH2 0x540 JUMP JUMPDEST SWAP6 SWAP5 POP POP POP POP POP JUMP JUMPDEST PUSH1 0x0 DUP2 PUSH1 0xC SIGNEXTEND SWAP1 POP SWAP2 SWAP1 POP JUMP JUMPDEST PUSH2 0x5CD DUP2 PUSH2 0x5B7 JUMP JUMPDEST DUP3 MSTORE POP POP JUMP JUMPDEST PUSH1 0x0 PUSH2 0xFFFF DUP3 AND SWAP1 POP SWAP2 SWAP1 POP JUMP JUMPDEST PUSH2 0x5EA DUP2 PUSH2 0x5D3 JUMP JUMPDEST DUP3 MSTORE POP POP JUMP JUMPDEST PUSH1 0x0 PUSH1 0xFF DUP3 AND SWAP1 POP SWAP2 SWAP1 POP JUMP JUMPDEST PUSH2 0x606 DUP2 PUSH2 0x5F0 JUMP JUMPDEST DUP3 MSTORE POP POP JUMP JUMPDEST PUSH1 0x0 PUSH1 0xA0 DUP3 ADD SWAP1 POP PUSH2 0x621 PUSH1 0x0 DUP4 ADD DUP9 PUSH2 0x5C4 JUMP JUMPDEST PUSH2 0x62E PUSH1 0x20 DUP4 ADD DUP8 PUSH2 0x563 JUMP JUMPDEST PUSH2 0x63B PUSH1 0x40 DUP4 ADD DUP7 PUSH2 0x563 JUMP JUMPDEST PUSH2 0x648 PUSH1 0x60 DUP4 ADD DUP6 PUSH2 0x5E1 JUMP JUMPDEST PUSH2 0x655 PUSH1 0x80 DUP4 ADD DUP5 PUSH2 0x5FD JUMP JUMPDEST SWAP7 SWAP6 POP POP POP POP POP POP JUMP INVALID LOG2 PUSH5 0x6970667358 0x22 SLT KECCAK256 0xCA 0x24 LT CODESIZE 0xC6 SWAP4 PUSH21 0xF3C6C44FBAB39014190E624A82CCB11F3065954AF0 0xBA PUSH32 0xE18264736F6C634300080F003300000000000000000000000000000000000000 "},"methodIdentifiers":{"isAllowed(address,address)":"a1654379","liquidatorPoints(address)":"c5fa15cf","totalsCollateral(address)":"59e017bd","userBasic(address)":"dc4abafd","userCollateral(address,address)":"2b92a07d","userNonce(address)":"2e04b8e7"}}}}}