{
  "_format": "hh-sol-artifact-1",
  "contractName": "CometStorage",
  "sourceName": "contracts/CometStorage.sol",
  "abi": [
    {
      "inputs": [
        {
          "internalType": "address",
          "name": "",
          "type": "address"
        },
        {
          "internalType": "address",
          "name": "",
          "type": "address"
        }
      ],
      "name": "isAllowed",
      "outputs": [
        {
          "internalType": "bool",
          "name": "",
          "type": "bool"
        }
      ],
      "stateMutability": "view",
      "type": "function"
    },
    {
      "inputs": [
        {
          "internalType": "address",
          "name": "",
          "type": "address"
        }
      ],
      "name": "liquidatorPoints",
      "outputs": [
        {
          "internalType": "uint32",
          "name": "numAbsorbs",
          "type": "uint32"
        },
        {
          "internalType": "uint64",
          "name": "numAbsorbed",
          "type": "uint64"
        },
        {
          "internalType": "uint128",
          "name": "approxSpend",
          "type": "uint128"
        },
        {
          "internalType": "uint32",
          "name": "_reserved",
          "type": "uint32"
        }
      ],
      "stateMutability": "view",
      "type": "function"
    },
    {
      "inputs": [
        {
          "internalType": "address",
          "name": "",
          "type": "address"
        }
      ],
      "name": "totalsCollateral",
      "outputs": [
        {
          "internalType": "uint128",
          "name": "totalSupplyAsset",
          "type": "uint128"
        },
        {
          "internalType": "uint128",
          "name": "_reserved",
          "type": "uint128"
        }
      ],
      "stateMutability": "view",
      "type": "function"
    },
    {
      "inputs": [
        {
          "internalType": "address",
          "name": "",
          "type": "address"
        }
      ],
      "name": "userBasic",
      "outputs": [
        {
          "internalType": "int104",
          "name": "principal",
          "type": "int104"
        },
        {
          "internalType": "uint64",
          "name": "baseTrackingIndex",
          "type": "uint64"
        },
        {
          "internalType": "uint64",
          "name": "baseTrackingAccrued",
          "type": "uint64"
        },
        {
          "internalType": "uint16",
          "name": "assetsIn",
          "type": "uint16"
        },
        {
          "internalType": "uint8",
          "name": "_reserved",
          "type": "uint8"
        }
      ],
      "stateMutability": "view",
      "type": "function"
    },
    {
      "inputs": [
        {
          "internalType": "address",
          "name": "",
          "type": "address"
        },
        {
          "internalType": "address",
          "name": "",
          "type": "address"
        }
      ],
      "name": "userCollateral",
      "outputs": [
        {
          "internalType": "uint128",
          "name": "balance",
          "type": "uint128"
        },
        {
          "internalType": "uint128",
          "name": "_reserved",
          "type": "uint128"
        }
      ],
      "stateMutability": "view",
      "type": "function"
    },
    {
      "inputs": [
        {
          "internalType": "address",
          "name": "",
          "type": "address"
        }
      ],
      "name": "userNonce",
      "outputs": [
        {
          "internalType": "uint256",
          "name": "",
          "type": "uint256"
        }
      ],
      "stateMutability": "view",
      "type": "function"
    }
  ],
  "bytecode": "0x608060405234801561001057600080fd5b50610695806100206000396000f3fe608060405234801561001057600080fd5b50600436106100625760003560e01c80632b92a07d146100675780632e04b8e71461009857806359e017bd146100c8578063a1654379146100f9578063c5fa15cf14610129578063dc4abafd1461015c575b600080fd5b610081600480360381019061007c9190610405565b610190565b60405161008f929190610470565b60405180910390f35b6100b260048036038101906100ad9190610499565b6101f9565b6040516100bf91906104df565b60405180910390f35b6100e260048036038101906100dd9190610499565b610211565b6040516100f0929190610470565b60405180910390f35b610113600480360381019061010e9190610405565b61026d565b6040516101209190610515565b60405180910390f35b610143600480360381019061013e9190610499565b61029c565b6040516101539493929190610572565b60405180910390f35b61017660048036038101906101719190610499565b61031c565b60405161018795949392919061060c565b60405180910390f35b6006602052816000526040600020602052806000526040600020600091509150508060000160009054906101000a90046fffffffffffffffffffffffffffffffff16908060000160109054906101000a90046fffffffffffffffffffffffffffffffff16905082565b60046020528060005260406000206000915090505481565b60026020528060005260406000206000915090508060000160009054906101000a90046fffffffffffffffffffffffffffffffff16908060000160109054906101000a90046fffffffffffffffffffffffffffffffff16905082565b60036020528160005260406000206020528060005260406000206000915091509054906101000a900460ff1681565b60076020528060005260406000206000915090508060000160009054906101000a900463ffffffff16908060000160049054906101000a900467ffffffffffffffff169080600001600c9054906101000a90046fffffffffffffffffffffffffffffffff169080600001601c9054906101000a900463ffffffff16905084565b60056020528060005260406000206000915090508060000160009054906101000a9004600c0b9080600001600d9054906101000a900467ffffffffffffffff16908060000160159054906101000a900467ffffffffffffffff169080600001601d9054906101000a900461ffff169080600001601f9054906101000a900460ff16905085565b600080fd5b600073ffffffffffffffffffffffffffffffffffffffff82169050919050565b60006103d2826103a7565b9050919050565b6103e2816103c7565b81146103ed57600080fd5b50565b6000813590506103ff816103d9565b92915050565b6000806040838503121561041c5761041b6103a2565b5b600061042a858286016103f0565b925050602061043b858286016103f0565b9150509250929050565b60006fffffffffffffffffffffffffffffffff82169050919050565b61046a81610445565b82525050565b60006040820190506104856000830185610461565b6104926020830184610461565b9392505050565b6000602082840312156104af576104ae6103a2565b5b60006104bd848285016103f0565b91505092915050565b6000819050919050565b6104d9816104c6565b82525050565b60006020820190506104f460008301846104d0565b92915050565b60008115159050919050565b61050f816104fa565b82525050565b600060208201905061052a6000830184610506565b92915050565b600063ffffffff82169050919050565b61054981610530565b82525050565b600067ffffffffffffffff82169050919050565b61056c8161054f565b82525050565b60006080820190506105876000830187610540565b6105946020830186610563565b6105a16040830185610461565b6105ae6060830184610540565b95945050505050565b600081600c0b9050919050565b6105cd816105b7565b82525050565b600061ffff82169050919050565b6105ea816105d3565b82525050565b600060ff82169050919050565b610606816105f0565b82525050565b600060a08201905061062160008301886105c4565b61062e6020830187610563565b61063b6040830186610563565b61064860608301856105e1565b61065560808301846105fd565b969550505050505056fea2646970667358221220ca241038c69374f3c6c44fbab39014190e624a82ccb11f3065954af0ba7fe18264736f6c634300080f0033",
  "linkReferences": {},
  "deployedLinkReferences": {}
}